{
  "_format": "hh-sol-artifact-1",
  "contractName": "Bet",
  "sourceName": "contracts/Bet.sol",
  "abi": [
    {
      "inputs": [],
      "name": "bet",
      "outputs": [],
      "stateMutability": "payable",
      "type": "function"
    },
    {
      "inputs": [
        {
          "internalType": "uint256",
          "name": "",
          "type": "uint256"
        }
      ],
      "name": "betAddresses",
      "outputs": [
        {
          "internalType": "address",
          "name": "",
          "type": "address"
        }
      ],
      "stateMutability": "view",
      "type": "function"
    },
    {
      "inputs": [
        {
          "internalType": "address",
          "name": "",
          "type": "address"
        }
      ],
      "name": "bets",
      "outputs": [
        {
          "internalType": "address",
          "name": "player1",
          "type": "address"
        },
        {
          "internalType": "address",
          "name": "player2",
          "type": "address"
        },
        {
          "internalType": "uint256",
          "name": "amount",
          "type": "uint256"
        },
        {
          "internalType": "bool",
          "name": "isChallenged",
          "type": "bool"
        }
      ],
      "stateMutability": "view",
      "type": "function"
    },
    {
      "inputs": [
        {
          "internalType": "address",
          "name": "_player1",
          "type": "address"
        }
      ],
      "name": "challengeBet",
      "outputs": [],
      "stateMutability": "payable",
      "type": "function"
    },
    {
      "inputs": [
        {
          "internalType": "address",
          "name": "user",
          "type": "address"
        }
      ],
      "name": "getActiveBets",
      "outputs": [
        {
          "components": [
            {
              "internalType": "address",
              "name": "player1",
              "type": "address"
            },
            {
              "internalType": "address",
              "name": "player2",
              "type": "address"
            },
            {
              "internalType": "uint256",
              "name": "amount",
              "type": "uint256"
            },
            {
              "internalType": "bool",
              "name": "isChallenged",
              "type": "bool"
            }
          ],
          "internalType": "struct Bet.BetInfo[]",
          "name": "",
          "type": "tuple[]"
        }
      ],
      "stateMutability": "view",
      "type": "function"
    },
    {
      "inputs": [],
      "name": "getBalance",
      "outputs": [
        {
          "internalType": "uint256",
          "name": "",
          "type": "uint256"
        }
      ],
      "stateMutability": "view",
      "type": "function"
    },
    {
      "inputs": [
        {
          "internalType": "address",
          "name": "_player1",
          "type": "address"
        }
      ],
      "name": "withdraw",
      "outputs": [],
      "stateMutability": "nonpayable",
      "type": "function"
    }
  ],
  "bytecode": "0x608060405234801561001057600080fd5b50611762806100206000396000f3fe6080604052600436106100705760003560e01c80634df179821161004e5780634df17982146100c657806351cff8d91461010357806353869fc61461012c57806389a78f1a1461016957610070565b806311610c251461007557806312065fe01461007f57806334ec2cec146100aa575b600080fd5b61007d6101a9565b005b34801561008b57600080fd5b5061009461041f565b6040516100a19190610f77565b60405180910390f35b6100c460048036038101906100bf9190610ff5565b610427565b005b3480156100d257600080fd5b506100ed60048036038101906100e8919061104e565b61060f565b6040516100fa919061108a565b60405180910390f35b34801561010f57600080fd5b5061012a60048036038101906101259190610ff5565b61064e565b005b34801561013857600080fd5b50610153600480360381019061014e9190610ff5565b6108f8565b60405161016091906111e2565b60405180910390f35b34801561017557600080fd5b50610190600480360381019061018b9190610ff5565b610e8b565b6040516101a09493929190611213565b60405180910390f35b600034116101ec576040517f08c379a00000000000000000000000000000000000000000000000000000000081526004016101e3906112b5565b60405180910390fd5b60008060003373ffffffffffffffffffffffffffffffffffffffff1673ffffffffffffffffffffffffffffffffffffffff1681526020019081526020016000206002015414610270576040517f08c379a000000000000000000000000000000000000000000000000000000000815260040161026790611321565b60405180910390fd5b60405180608001604052803373ffffffffffffffffffffffffffffffffffffffff168152602001600073ffffffffffffffffffffffffffffffffffffffff168152602001348152602001600015158152506000803373ffffffffffffffffffffffffffffffffffffffff1673ffffffffffffffffffffffffffffffffffffffff16815260200190815260200160002060008201518160000160006101000a81548173ffffffffffffffffffffffffffffffffffffffff021916908373ffffffffffffffffffffffffffffffffffffffff16021790555060208201518160010160006101000a81548173ffffffffffffffffffffffffffffffffffffffff021916908373ffffffffffffffffffffffffffffffffffffffff1602179055506040820151816002015560608201518160030160006101000a81548160ff0219169083151502179055509050506001339080600181540180825580915050600190039060005260206000200160009091909190916101000a81548173ffffffffffffffffffffffffffffffffffffffff021916908373ffffffffffffffffffffffffffffffffffffffff160217905550565b600047905090565b60008060008373ffffffffffffffffffffffffffffffffffffffff1673ffffffffffffffffffffffffffffffffffffffff168152602001908152602001600020905060008160020154116104b0576040517f08c379a00000000000000000000000000000000000000000000000000000000081526004016104a79061138d565b60405180910390fd5b8060030160009054906101000a900460ff1615610502576040517f08c379a00000000000000000000000000000000000000000000000000000000081526004016104f9906113f9565b60405180910390fd5b80600201543414610548576040517f08c379a000000000000000000000000000000000000000000000000000000000815260040161053f9061148b565b60405180910390fd5b338160010160006101000a81548173ffffffffffffffffffffffffffffffffffffffff021916908373ffffffffffffffffffffffffffffffffffffffff16021790555060018160030160006101000a81548160ff0219169083151502179055506001339080600181540180825580915050600190039060005260206000200160009091909190916101000a81548173ffffffffffffffffffffffffffffffffffffffff021916908373ffffffffffffffffffffffffffffffffffffffff1602179055505050565b6001818154811061061f57600080fd5b906000526020600020016000915054906101000a900473ffffffffffffffffffffffffffffffffffffffff1681565b60008060008373ffffffffffffffffffffffffffffffffffffffff1673ffffffffffffffffffffffffffffffffffffffff16815260200190815260200160002090508060030160009054906101000a900460ff166106e1576040517f08c379a00000000000000000000000000000000000000000000000000000000081526004016106d8906114f7565b60405180910390fd5b8173ffffffffffffffffffffffffffffffffffffffff163373ffffffffffffffffffffffffffffffffffffffff16148061076a57508060010160009054906101000a900473ffffffffffffffffffffffffffffffffffffffff1673ffffffffffffffffffffffffffffffffffffffff163373ffffffffffffffffffffffffffffffffffffffff16145b6107a9576040517f08c379a00000000000000000000000000000000000000000000000000000000081526004016107a090611589565b60405180910390fd5b6000600282600201546107bc91906115d8565b905080471015610801576040517f08c379a00000000000000000000000000000000000000000000000000000000081526004016107f890611666565b60405180910390fd5b6000808473ffffffffffffffffffffffffffffffffffffffff1673ffffffffffffffffffffffffffffffffffffffff168152602001908152602001600020600080820160006101000a81549073ffffffffffffffffffffffffffffffffffffffff02191690556001820160006101000a81549073ffffffffffffffffffffffffffffffffffffffff021916905560028201600090556003820160006101000a81549060ff021916905550503373ffffffffffffffffffffffffffffffffffffffff166108fc829081150290604051600060405180830381858888f193505050501580156108f2573d6000803e3d6000fd5b50505050565b60606000805b600180549050811015610ad5578373ffffffffffffffffffffffffffffffffffffffff166000806001848154811061093957610938611686565b5b9060005260206000200160009054906101000a900473ffffffffffffffffffffffffffffffffffffffff1673ffffffffffffffffffffffffffffffffffffffff1673ffffffffffffffffffffffffffffffffffffffff16815260200190815260200160002060000160009054906101000a900473ffffffffffffffffffffffffffffffffffffffff1673ffffffffffffffffffffffffffffffffffffffff161480610aae57508373ffffffffffffffffffffffffffffffffffffffff1660008060018481548110610a0d57610a0c611686565b5b9060005260206000200160009054906101000a900473ffffffffffffffffffffffffffffffffffffffff1673ffffffffffffffffffffffffffffffffffffffff1673ffffffffffffffffffffffffffffffffffffffff16815260200190815260200160002060010160009054906101000a900473ffffffffffffffffffffffffffffffffffffffff1673ffffffffffffffffffffffffffffffffffffffff16145b15610ac2578180610abe906116b5565b9250505b8080610acd906116b5565b9150506108fe565b5060008167ffffffffffffffff811115610af257610af16116fd565b5b604051908082528060200260200182016040528015610b2b57816020015b610b18610f08565b815260200190600190039081610b105790505b5090506000805b600180549050811015610e7f578573ffffffffffffffffffffffffffffffffffffffff1660008060018481548110610b6d57610b6c611686565b5b9060005260206000200160009054906101000a900473ffffffffffffffffffffffffffffffffffffffff1673ffffffffffffffffffffffffffffffffffffffff1673ffffffffffffffffffffffffffffffffffffffff16815260200190815260200160002060000160009054906101000a900473ffffffffffffffffffffffffffffffffffffffff1673ffffffffffffffffffffffffffffffffffffffff161480610ce257508573ffffffffffffffffffffffffffffffffffffffff1660008060018481548110610c4157610c40611686565b5b9060005260206000200160009054906101000a900473ffffffffffffffffffffffffffffffffffffffff1673ffffffffffffffffffffffffffffffffffffffff1673ffffffffffffffffffffffffffffffffffffffff16815260200190815260200160002060010160009054906101000a900473ffffffffffffffffffffffffffffffffffffffff1673ffffffffffffffffffffffffffffffffffffffff16145b15610e6c5760008060018381548110610cfe57610cfd611686565b5b9060005260206000200160009054906101000a900473ffffffffffffffffffffffffffffffffffffffff1673ffffffffffffffffffffffffffffffffffffffff1673ffffffffffffffffffffffffffffffffffffffff1681526020019081526020016000206040518060800160405290816000820160009054906101000a900473ffffffffffffffffffffffffffffffffffffffff1673ffffffffffffffffffffffffffffffffffffffff1673ffffffffffffffffffffffffffffffffffffffff1681526020016001820160009054906101000a900473ffffffffffffffffffffffffffffffffffffffff1673ffffffffffffffffffffffffffffffffffffffff1673ffffffffffffffffffffffffffffffffffffffff168152602001600282015481526020016003820160009054906101000a900460ff161515151581525050838381518110610e5257610e51611686565b5b60200260200101819052508180610e68906116b5565b9250505b8080610e77906116b5565b915050610b32565b50819350505050919050565b60006020528060005260406000206000915090508060000160009054906101000a900473ffffffffffffffffffffffffffffffffffffffff16908060010160009054906101000a900473ffffffffffffffffffffffffffffffffffffffff16908060020154908060030160009054906101000a900460ff16905084565b6040518060800160405280600073ffffffffffffffffffffffffffffffffffffffff168152602001600073ffffffffffffffffffffffffffffffffffffffff168152602001600081526020016000151581525090565b6000819050919050565b610f7181610f5e565b82525050565b6000602082019050610f8c6000830184610f68565b92915050565b600080fd5b600073ffffffffffffffffffffffffffffffffffffffff82169050919050565b6000610fc282610f97565b9050919050565b610fd281610fb7565b8114610fdd57600080fd5b50565b600081359050610fef81610fc9565b92915050565b60006020828403121561100b5761100a610f92565b5b600061101984828501610fe0565b91505092915050565b61102b81610f5e565b811461103657600080fd5b50565b60008135905061104881611022565b92915050565b60006020828403121561106457611063610f92565b5b600061107284828501611039565b91505092915050565b61108481610fb7565b82525050565b600060208201905061109f600083018461107b565b92915050565b600081519050919050565b600082825260208201905092915050565b6000819050602082019050919050565b6110da81610fb7565b82525050565b6110e981610f5e565b82525050565b60008115159050919050565b611104816110ef565b82525050565b60808201600082015161112060008501826110d1565b50602082015161113360208501826110d1565b50604082015161114660408501826110e0565b50606082015161115960608501826110fb565b50505050565b600061116b838361110a565b60808301905092915050565b6000602082019050919050565b600061118f826110a5565b61119981856110b0565b93506111a4836110c1565b8060005b838110156111d55781516111bc888261115f565b97506111c783611177565b9250506001810190506111a8565b5085935050505092915050565b600060208201905081810360008301526111fc8184611184565b905092915050565b61120d816110ef565b82525050565b6000608082019050611228600083018761107b565b611235602083018661107b565b6112426040830185610f68565b61124f6060830184611204565b95945050505050565b600082825260208201905092915050565b7f426574206d7573742062652067726561746572207468616e2030000000000000600082015250565b600061129f601a83611258565b91506112aa82611269565b602082019050919050565b600060208201905081810360008301526112ce81611292565b9050919050565b7f596f75206861766520616c726561647920706c61636564206120626574000000600082015250565b600061130b601d83611258565b9150611316826112d5565b602082019050919050565b6000602082019050818103600083015261133a816112fe565b9050919050565b7f4e6f2062657420666f756e6420666f72207468697320706c6179657200000000600082015250565b6000611377601c83611258565b915061138282611341565b602082019050919050565b600060208201905081810360008301526113a68161136a565b9050919050565b7f42657420616c7265616479206368616c6c656e67656400000000000000000000600082015250565b60006113e3601683611258565b91506113ee826113ad565b602082019050919050565b60006020820190508181036000830152611412816113d6565b9050919050565b7f426574206d757374206d61746368206f726967696e616c20626574746f72277360008201527f20616d6f756e7400000000000000000000000000000000000000000000000000602082015250565b6000611475602783611258565b915061148082611419565b604082019050919050565b600060208201905081810360008301526114a481611468565b9050919050565b7f42657420686173206e6f74206265656e206368616c6c656e6765640000000000600082015250565b60006114e1601b83611258565b91506114ec826114ab565b602082019050919050565b60006020820190508181036000830152611510816114d4565b9050919050565b7f4f6e6c7920706c617965727320696e766f6c76656420696e207468652062657460008201527f2063616e20776974686472617700000000000000000000000000000000000000602082015250565b6000611573602d83611258565b915061157e82611517565b604082019050919050565b600060208201905081810360008301526115a281611566565b9050919050565b7f4e487b7100000000000000000000000000000000000000000000000000000000600052601160045260246000fd5b60006115e382610f5e565b91506115ee83610f5e565b92508282026115fc81610f5e565b91508282048414831517611613576116126115a9565b5b5092915050565b7f4e6f7420656e6f7567682066756e647320696e20636f6e747261637400000000600082015250565b6000611650601c83611258565b915061165b8261161a565b602082019050919050565b6000602082019050818103600083015261167f81611643565b9050919050565b7f4e487b7100000000000000000000000000000000000000000000000000000000600052603260045260246000fd5b60006116c082610f5e565b91507fffffffffffffffffffffffffffffffffffffffffffffffffffffffffffffffff82036116f2576116f16115a9565b5b600182019050919050565b7f4e487b7100000000000000000000000000000000000000000000000000000000600052604160045260246000fdfea26469706673582212209cfdcc4f5e7870d09921a5012d1803ac2f6a2e153cafc9b3870d29b9bd7fc39864736f6c63430008130033",
  "linkReferences": {},
  "deployedLinkReferences": {}
}